{
  "contractName": "Photolla",
  "abi": [
    {
      "anonymous": false,
      "inputs": [
        {
          "indexed": false,
          "internalType": "uint256",
          "name": "creatorId",
          "type": "uint256"
        },
        {
          "indexed": false,
          "internalType": "uint256",
          "name": "imageCount",
          "type": "uint256"
        },
        {
          "indexed": false,
          "internalType": "address",
          "name": "creatorAddress",
          "type": "address"
        },
        {
          "indexed": false,
          "internalType": "string",
          "name": "creatorName",
          "type": "string"
        },
        {
          "indexed": false,
          "internalType": "string",
          "name": "defaultProfile",
          "type": "string"
        },
        {
          "indexed": false,
          "internalType": "string",
          "name": "profileHash",
          "type": "string"
        },
        {
          "indexed": false,
          "internalType": "string",
          "name": "bio",
          "type": "string"
        }
      ],
      "name": "CreatorNameCreated",
      "type": "event"
    },
    {
      "anonymous": false,
      "inputs": [
        {
          "indexed": false,
          "internalType": "uint256",
          "name": "imageId",
          "type": "uint256"
        },
        {
          "indexed": false,
          "internalType": "string",
          "name": "hash",
          "type": "string"
        },
        {
          "indexed": false,
          "internalType": "string",
          "name": "description",
          "type": "string"
        },
        {
          "indexed": false,
          "internalType": "uint256",
          "name": "tipAmount",
          "type": "uint256"
        },
        {
          "indexed": false,
          "internalType": "address payable",
          "name": "author",
          "type": "address"
        }
      ],
      "name": "ImageCreated",
      "type": "event"
    },
    {
      "anonymous": false,
      "inputs": [
        {
          "indexed": false,
          "internalType": "uint256",
          "name": "imageId",
          "type": "uint256"
        },
        {
          "indexed": false,
          "internalType": "string",
          "name": "hash",
          "type": "string"
        },
        {
          "indexed": false,
          "internalType": "string",
          "name": "description",
          "type": "string"
        },
        {
          "indexed": false,
          "internalType": "uint256",
          "name": "tipAmount",
          "type": "uint256"
        },
        {
          "indexed": false,
          "internalType": "address payable",
          "name": "author",
          "type": "address"
        }
      ],
      "name": "ImageTipped",
      "type": "event"
    },
    {
      "constant": true,
      "inputs": [],
      "name": "creatorCount",
      "outputs": [
        {
          "internalType": "uint256",
          "name": "",
          "type": "uint256"
        }
      ],
      "payable": false,
      "stateMutability": "view",
      "type": "function"
    },
    {
      "constant": true,
      "inputs": [
        {
          "internalType": "address",
          "name": "",
          "type": "address"
        }
      ],
      "name": "creatorIDs",
      "outputs": [
        {
          "internalType": "uint256",
          "name": "",
          "type": "uint256"
        }
      ],
      "payable": false,
      "stateMutability": "view",
      "type": "function"
    },
    {
      "constant": true,
      "inputs": [
        {
          "internalType": "uint256",
          "name": "",
          "type": "uint256"
        }
      ],
      "name": "creators",
      "outputs": [
        {
          "internalType": "uint256",
          "name": "creatorId",
          "type": "uint256"
        },
        {
          "internalType": "uint256",
          "name": "imageCount",
          "type": "uint256"
        },
        {
          "internalType": "address",
          "name": "creatorAddress",
          "type": "address"
        },
        {
          "internalType": "string",
          "name": "creatorName",
          "type": "string"
        },
        {
          "internalType": "string",
          "name": "defaultProfile",
          "type": "string"
        },
        {
          "internalType": "string",
          "name": "profileHash",
          "type": "string"
        },
        {
          "internalType": "string",
          "name": "bio",
          "type": "string"
        }
      ],
      "payable": false,
      "stateMutability": "view",
      "type": "function"
    },
    {
      "constant": true,
      "inputs": [
        {
          "internalType": "address",
          "name": "",
          "type": "address"
        },
        {
          "internalType": "uint256",
          "name": "",
          "type": "uint256"
        }
      ],
      "name": "images",
      "outputs": [
        {
          "internalType": "uint256",
          "name": "imageId",
          "type": "uint256"
        },
        {
          "internalType": "string",
          "name": "hash",
          "type": "string"
        },
        {
          "internalType": "string",
          "name": "description",
          "type": "string"
        },
        {
          "internalType": "uint256",
          "name": "tipAmount",
          "type": "uint256"
        },
        {
          "internalType": "address payable",
          "name": "author",
          "type": "address"
        }
      ],
      "payable": false,
      "stateMutability": "view",
      "type": "function"
    },
    {
      "constant": true,
      "inputs": [],
      "name": "name",
      "outputs": [
        {
          "internalType": "string",
          "name": "",
          "type": "string"
        }
      ],
      "payable": false,
      "stateMutability": "view",
      "type": "function"
    },
    {
      "constant": false,
      "inputs": [
        {
          "internalType": "address",
          "name": "creatorAddress",
          "type": "address"
        },
        {
          "internalType": "uint256",
          "name": "imageId",
          "type": "uint256"
        }
      ],
      "name": "getImage",
      "outputs": [
        {
          "components": [
            {
              "internalType": "uint256",
              "name": "imageId",
              "type": "uint256"
            },
            {
              "internalType": "string",
              "name": "hash",
              "type": "string"
            },
            {
              "internalType": "string",
              "name": "description",
              "type": "string"
            },
            {
              "internalType": "uint256",
              "name": "tipAmount",
              "type": "uint256"
            },
            {
              "internalType": "address payable",
              "name": "author",
              "type": "address"
            }
          ],
          "internalType": "struct Photolla.Image",
          "name": "image",
          "type": "tuple"
        }
      ],
      "payable": false,
      "stateMutability": "nonpayable",
      "type": "function"
    },
    {
      "constant": false,
      "inputs": [
        {
          "internalType": "address",
          "name": "creatorAddress",
          "type": "address"
        }
      ],
      "name": "getImages",
      "outputs": [
        {
          "components": [
            {
              "internalType": "uint256",
              "name": "imageId",
              "type": "uint256"
            },
            {
              "internalType": "string",
              "name": "hash",
              "type": "string"
            },
            {
              "internalType": "string",
              "name": "description",
              "type": "string"
            },
            {
              "internalType": "uint256",
              "name": "tipAmount",
              "type": "uint256"
            },
            {
              "internalType": "address payable",
              "name": "author",
              "type": "address"
            }
          ],
          "internalType": "struct Photolla.Image[]",
          "name": "creatorImages",
          "type": "tuple[]"
        }
      ],
      "payable": false,
      "stateMutability": "nonpayable",
      "type": "function"
    },
    {
      "constant": false,
      "inputs": [
        {
          "internalType": "string",
          "name": "_creatorName",
          "type": "string"
        },
        {
          "internalType": "string",
          "name": "_profileHash",
          "type": "string"
        },
        {
          "internalType": "string",
          "name": "_defaultProfile",
          "type": "string"
        },
        {
          "internalType": "string",
          "name": "_bio",
          "type": "string"
        }
      ],
      "name": "newCreator",
      "outputs": [],
      "payable": false,
      "stateMutability": "nonpayable",
      "type": "function"
    },
    {
      "constant": false,
      "inputs": [
        {
          "internalType": "string",
          "name": "_imageHash",
          "type": "string"
        },
        {
          "internalType": "string",
          "name": "_description",
          "type": "string"
        }
      ],
      "name": "uploadImage",
      "outputs": [],
      "payable": false,
      "stateMutability": "nonpayable",
      "type": "function"
    },
    {
      "constant": false,
      "inputs": [
        {
          "internalType": "string",
          "name": "_imageHash",
          "type": "string"
        }
      ],
      "name": "uploadProfileImage",
      "outputs": [],
      "payable": false,
      "stateMutability": "nonpayable",
      "type": "function"
    },
    {
      "constant": false,
      "inputs": [
        {
          "internalType": "address",
          "name": "creatorAddress",
          "type": "address"
        },
        {
          "internalType": "uint256",
          "name": "imageID",
          "type": "uint256"
        }
      ],
      "name": "tipImageOwner",
      "outputs": [],
      "payable": true,
      "stateMutability": "payable",
      "type": "function"
    }
  ],
  "bytecode": "0x60806040526040518060400160405280600881526020017f50686f746f6c6c6100000000000000000000000000000000000000000000000081525060009080519060200190620000519291906200006b565b5060006001553480156200006457600080fd5b506200011a565b828054600181600116156101000203166002900490600052602060002090601f016020900481019282601f10620000ae57805160ff1916838001178555620000df565b82800160010185558215620000df579182015b82811115620000de578251825591602001919060010190620000c1565b5b509050620000ee9190620000f2565b5090565b6200011791905b8082111562000113576000816000905550600101620000f9565b5090565b90565b612034806200012a6000396000f3fe60806040526004361061009c5760003560e01c80636b7468fa116100645780636b7468fa146101a35780638a8b177f146101e0578063a6272c8314610209578063a91b831414610232578063cd53d08e1461025b578063d82faa481461029e5761009c565b8063056aef4c146100a157806306fdde03146100de5780632ac337921461010957806333b0560c1461014a5780633742b2bd14610187575b600080fd5b3480156100ad57600080fd5b506100c860048036036100c39190810190611722565b6102c9565b6040516100d59190611c1d565b60405180910390f35b3480156100ea57600080fd5b506100f36102e1565b6040516101009190611bd9565b60405180910390f35b34801561011557600080fd5b50610130600480360361012b919081019061174b565b61037f565b604051610141959493929190611d24565b60405180910390f35b34801561015657600080fd5b50610171600480360361016c919081019061174b565b61051f565b60405161017e9190611bfb565b60405180910390f35b6101a1600480360361019c919081019061174b565b610740565b005b3480156101af57600080fd5b506101ca60048036036101c59190810190611722565b610a69565b6040516101d79190611bb7565b60405180910390f35b3480156101ec57600080fd5b5061020760048036036102029190810190611787565b610cb5565b005b34801561021557600080fd5b50610230600480360361022b9190810190611834565b610d6a565b005b34801561023e57600080fd5b50610259600480360361025491908101906117c8565b610f89565b005b34801561026757600080fd5b50610282600480360361027d91908101906118f7565b611272565b6040516102959796959493929190611d85565b60405180910390f35b3480156102aa57600080fd5b506102b3611534565b6040516102c09190611c1d565b60405180910390f35b60036020528060005260406000206000915090505481565b60008054600181600116156101000203166002900480601f0160208091040260200160405190810160405280929190818152602001828054600181600116156101000203166002900480156103775780601f1061034c57610100808354040283529160200191610377565b820191906000526020600020905b81548152906001019060200180831161035a57829003601f168201915b505050505081565b6004602052816000526040600020818154811061039857fe5b906000526020600020906005020160009150915050806000015490806001018054600181600116156101000203166002900480601f01602080910402602001604051908101604052809291908181526020018280546001816001161561010002031660029004801561044b5780601f106104205761010080835404028352916020019161044b565b820191906000526020600020905b81548152906001019060200180831161042e57829003601f168201915b505050505090806002018054600181600116156101000203166002900480601f0160208091040260200160405190810160405280929190818152602001828054600181600116156101000203166002900480156104e95780601f106104be576101008083540402835291602001916104e9565b820191906000526020600020905b8154815290600101906020018083116104cc57829003601f168201915b5050505050908060030154908060040160009054906101000a900473ffffffffffffffffffffffffffffffffffffffff16905085565b61052761153a565b600460008473ffffffffffffffffffffffffffffffffffffffff1673ffffffffffffffffffffffffffffffffffffffff168152602001908152602001600020828154811061057157fe5b90600052602060002090600502016040518060a001604052908160008201548152602001600182018054600181600116156101000203166002900480601f01602080910402602001604051908101604052809291908181526020018280546001816001161561010002031660029004801561062d5780601f106106025761010080835404028352916020019161062d565b820191906000526020600020905b81548152906001019060200180831161061057829003601f168201915b50505050508152602001600282018054600181600116156101000203166002900480601f0160208091040260200160405190810160405280929190818152602001828054600181600116156101000203166002900480156106cf5780601f106106a4576101008083540402835291602001916106cf565b820191906000526020600020905b8154815290600101906020018083116106b257829003601f168201915b50505050508152602001600382015481526020016004820160009054906101000a900473ffffffffffffffffffffffffffffffffffffffff1673ffffffffffffffffffffffffffffffffffffffff1673ffffffffffffffffffffffffffffffffffffffff1681525050905092915050565b61074861153a565b600460008473ffffffffffffffffffffffffffffffffffffffff1673ffffffffffffffffffffffffffffffffffffffff168152602001908152602001600020828154811061079257fe5b90600052602060002090600502016040518060a001604052908160008201548152602001600182018054600181600116156101000203166002900480601f01602080910402602001604051908101604052809291908181526020018280546001816001161561010002031660029004801561084e5780601f106108235761010080835404028352916020019161084e565b820191906000526020600020905b81548152906001019060200180831161083157829003601f168201915b50505050508152602001600282018054600181600116156101000203166002900480601f0160208091040260200160405190810160405280929190818152602001828054600181600116156101000203166002900480156108f05780601f106108c5576101008083540402835291602001916108f0565b820191906000526020600020905b8154815290600101906020018083116108d357829003601f168201915b50505050508152602001600382015481526020016004820160009054906101000a900473ffffffffffffffffffffffffffffffffffffffff1673ffffffffffffffffffffffffffffffffffffffff1673ffffffffffffffffffffffffffffffffffffffff168152505090506000816080015190508073ffffffffffffffffffffffffffffffffffffffff166108fc349081150290604051600060405180830381858888f193505050501580156109aa573d6000803e3d6000fd5b5034600460008673ffffffffffffffffffffffffffffffffffffffff1673ffffffffffffffffffffffffffffffffffffffff16815260200190815260200160002084815481106109f657fe5b9060005260206000209060050201600301600082825401925050819055507f1be5317bca8d3f70dc1efe89958be71bff36cdca33fc00a6423e25eb2f1d492f826000015183602001518460400151856060015185604051610a5b959493929190611d24565b60405180910390a150505050565b6060600460008373ffffffffffffffffffffffffffffffffffffffff1673ffffffffffffffffffffffffffffffffffffffff168152602001908152602001600020805480602002602001604051908101604052809291908181526020016000905b82821015610caa57838290600052602060002090600502016040518060a001604052908160008201548152602001600182018054600181600116156101000203166002900480601f016020809104026020016040519081016040528092919081815260200182805460018160011615610100020316600290048015610b905780601f10610b6557610100808354040283529160200191610b90565b820191906000526020600020905b815481529060010190602001808311610b7357829003601f168201915b50505050508152602001600282018054600181600116156101000203166002900480601f016020809104026020016040519081016040528092919081815260200182805460018160011615610100020316600290048015610c325780601f10610c0757610100808354040283529160200191610c32565b820191906000526020600020905b815481529060010190602001808311610c1557829003601f168201915b50505050508152602001600382015481526020016004820160009054906101000a900473ffffffffffffffffffffffffffffffffffffffff1673ffffffffffffffffffffffffffffffffffffffff1673ffffffffffffffffffffffffffffffffffffffff168152505081526020019060010190610aca565b505050509050919050565b6000815111610cc357600080fd5b600073ffffffffffffffffffffffffffffffffffffffff163373ffffffffffffffffffffffffffffffffffffffff161415610cfd57600080fd5b8060026000600360003373ffffffffffffffffffffffffffffffffffffffff1673ffffffffffffffffffffffffffffffffffffffff1681526020019081526020016000205481526020019081526020016000206005019080519060200190610d6692919061157f565b5050565b600073ffffffffffffffffffffffffffffffffffffffff163373ffffffffffffffffffffffffffffffffffffffff161415610da457600080fd5b6000845111610db257600080fd5b600160008154809291906001019190505550600154600360003373ffffffffffffffffffffffffffffffffffffffff1673ffffffffffffffffffffffffffffffffffffffff168152602001908152602001600020819055506040518060e001604052806001548152602001600081526020013373ffffffffffffffffffffffffffffffffffffffff16815260200185815260200183815260200184815260200182815250600260006001548152602001908152602001600020600082015181600001556020820151816001015560408201518160020160006101000a81548173ffffffffffffffffffffffffffffffffffffffff021916908373ffffffffffffffffffffffffffffffffffffffff1602179055506060820151816003019080519060200190610ee29291906115ff565b506080820151816004019080519060200190610eff9291906115ff565b5060a0820151816005019080519060200190610f1c9291906115ff565b5060c0820151816006019080519060200190610f399291906115ff565b509050507f60078ff026821e9434821825a17dc0e2d168857b38f8071b87752a886acc31fd60015460003387868887604051610f7b9796959493929190611c38565b60405180910390a150505050565b6000825111610f9757600080fd5b6000815111610fa557600080fd5b600073ffffffffffffffffffffffffffffffffffffffff163373ffffffffffffffffffffffffffffffffffffffff161415610fdf57600080fd5b60026000600360003373ffffffffffffffffffffffffffffffffffffffff1673ffffffffffffffffffffffffffffffffffffffff16815260200190815260200160002054815260200190815260200160002060010160008154809291906001019190505550600460003373ffffffffffffffffffffffffffffffffffffffff1673ffffffffffffffffffffffffffffffffffffffff1681526020019081526020016000206040518060a0016040528060026000600360003373ffffffffffffffffffffffffffffffffffffffff1673ffffffffffffffffffffffffffffffffffffffff168152602001908152602001600020548152602001908152602001600020600101548152602001848152602001838152602001600081526020013373ffffffffffffffffffffffffffffffffffffffff16815250908060018154018082558091505090600182039060005260206000209060050201600090919290919091506000820151816000015560208201518160010190805190602001906111679291906115ff565b5060408201518160020190805190602001906111849291906115ff565b506060820151816003015560808201518160040160006101000a81548173ffffffffffffffffffffffffffffffffffffffff021916908373ffffffffffffffffffffffffffffffffffffffff1602179055505050507fc1d8dfa99b3f84f95d3f0bc4a768addeb97b83b20aef7f9cb6729e126bafd2f960026000600360003373ffffffffffffffffffffffffffffffffffffffff1673ffffffffffffffffffffffffffffffffffffffff168152602001908152602001600020548152602001908152602001600020600101548383600033604051611266959493929190611cc3565b60405180910390a15050565b60026020528060005260406000206000915090508060000154908060010154908060020160009054906101000a900473ffffffffffffffffffffffffffffffffffffffff1690806003018054600181600116156101000203166002900480601f0160208091040260200160405190810160405280929190818152602001828054600181600116156101000203166002900480156113505780601f1061132557610100808354040283529160200191611350565b820191906000526020600020905b81548152906001019060200180831161133357829003601f168201915b505050505090806004018054600181600116156101000203166002900480601f0160208091040260200160405190810160405280929190818152602001828054600181600116156101000203166002900480156113ee5780601f106113c3576101008083540402835291602001916113ee565b820191906000526020600020905b8154815290600101906020018083116113d157829003601f168201915b505050505090806005018054600181600116156101000203166002900480601f01602080910402602001604051908101604052809291908181526020018280546001816001161561010002031660029004801561148c5780601f106114615761010080835404028352916020019161148c565b820191906000526020600020905b81548152906001019060200180831161146f57829003601f168201915b505050505090806006018054600181600116156101000203166002900480601f01602080910402602001604051908101604052809291908181526020018280546001816001161561010002031660029004801561152a5780601f106114ff5761010080835404028352916020019161152a565b820191906000526020600020905b81548152906001019060200180831161150d57829003601f168201915b5050505050905087565b60015481565b6040518060a0016040528060008152602001606081526020016060815260200160008152602001600073ffffffffffffffffffffffffffffffffffffffff1681525090565b828054600181600116156101000203166002900490600052602060002090601f016020900481019282601f106115c057805160ff19168380011785556115ee565b828001600101855582156115ee579182015b828111156115ed5782518255916020019190600101906115d2565b5b5090506115fb919061167f565b5090565b828054600181600116156101000203166002900490600052602060002090601f016020900481019282601f1061164057805160ff191683800117855561166e565b8280016001018555821561166e579182015b8281111561166d578251825591602001919060010190611652565b5b50905061167b919061167f565b5090565b6116a191905b8082111561169d576000816000905550600101611685565b5090565b90565b6000813590506116b381611fc3565b92915050565b600082601f8301126116ca57600080fd5b81356116dd6116d882611e3d565b611e10565b915080825260208301602083018583830111156116f957600080fd5b611704838284611f70565b50505092915050565b60008135905061171c81611fda565b92915050565b60006020828403121561173457600080fd5b6000611742848285016116a4565b91505092915050565b6000806040838503121561175e57600080fd5b600061176c858286016116a4565b925050602061177d8582860161170d565b9150509250929050565b60006020828403121561179957600080fd5b600082013567ffffffffffffffff8111156117b357600080fd5b6117bf848285016116b9565b91505092915050565b600080604083850312156117db57600080fd5b600083013567ffffffffffffffff8111156117f557600080fd5b611801858286016116b9565b925050602083013567ffffffffffffffff81111561181e57600080fd5b61182a858286016116b9565b9150509250929050565b6000806000806080858703121561184a57600080fd5b600085013567ffffffffffffffff81111561186457600080fd5b611870878288016116b9565b945050602085013567ffffffffffffffff81111561188d57600080fd5b611899878288016116b9565b935050604085013567ffffffffffffffff8111156118b657600080fd5b6118c2878288016116b9565b925050606085013567ffffffffffffffff8111156118df57600080fd5b6118eb878288016116b9565b91505092959194509250565b60006020828403121561190957600080fd5b60006119178482850161170d565b91505092915050565b600061192c8383611b1c565b905092915050565b61193d81611f28565b82525050565b61194c81611eec565b82525050565b61195b81611eec565b82525050565b61196a81611eda565b82525050565b600061197b82611e79565b6119858185611ea7565b93508360208202850161199785611e69565b8060005b858110156119d357848403895281516119b48582611920565b94506119bf83611e9a565b925060208a0199505060018101905061199b565b50829750879550505050505092915050565b6119ee81611f3a565b82525050565b60006119ff82611e8f565b611a098185611ec9565b9350611a19818560208601611f7f565b611a2281611fb2565b840191505092915050565b6000611a3882611e84565b611a428185611eb8565b9350611a52818560208601611f7f565b611a5b81611fb2565b840191505092915050565b6000611a7182611e84565b611a7b8185611ec9565b9350611a8b818560208601611f7f565b611a9481611fb2565b840191505092915050565b600060a083016000830151611ab76000860182611b99565b5060208301518482036020860152611acf8282611a2d565b91505060408301518482036040860152611ae98282611a2d565b9150506060830151611afe6060860182611b99565b506080830151611b116080860182611943565b508091505092915050565b600060a083016000830151611b346000860182611b99565b5060208301518482036020860152611b4c8282611a2d565b91505060408301518482036040860152611b668282611a2d565b9150506060830151611b7b6060860182611b99565b506080830151611b8e6080860182611943565b508091505092915050565b611ba281611f1e565b82525050565b611bb181611f1e565b82525050565b60006020820190508181036000830152611bd18184611970565b905092915050565b60006020820190508181036000830152611bf38184611a66565b905092915050565b60006020820190508181036000830152611c158184611a9f565b905092915050565b6000602082019050611c326000830184611ba8565b92915050565b600060e082019050611c4d600083018a611ba8565b611c5a60208301896119e5565b611c676040830188611934565b8181036060830152611c7981876119f4565b90508181036080830152611c8d81866119f4565b905081810360a0830152611ca181856119f4565b905081810360c0830152611cb581846119f4565b905098975050505050505050565b600060a082019050611cd86000830188611ba8565b8181036020830152611cea81876119f4565b90508181036040830152611cfe81866119f4565b9050611d0d60608301856119e5565b611d1a6080830184611952565b9695505050505050565b600060a082019050611d396000830188611ba8565b8181036020830152611d4b8187611a66565b90508181036040830152611d5f8186611a66565b9050611d6e6060830185611ba8565b611d7b6080830184611952565b9695505050505050565b600060e082019050611d9a600083018a611ba8565b611da76020830189611ba8565b611db46040830188611961565b8181036060830152611dc68187611a66565b90508181036080830152611dda8186611a66565b905081810360a0830152611dee8185611a66565b905081810360c0830152611e028184611a66565b905098975050505050505050565b6000604051905081810181811067ffffffffffffffff82111715611e3357600080fd5b8060405250919050565b600067ffffffffffffffff821115611e5457600080fd5b601f19601f8301169050602081019050919050565b6000819050602082019050919050565b600081519050919050565b600081519050919050565b600081519050919050565b6000602082019050919050565b600082825260208201905092915050565b600082825260208201905092915050565b600082825260208201905092915050565b6000611ee582611efe565b9050919050565b6000611ef782611efe565b9050919050565b600073ffffffffffffffffffffffffffffffffffffffff82169050919050565b6000819050919050565b6000611f3382611f4c565b9050919050565b6000611f4582611f1e565b9050919050565b6000611f5782611f5e565b9050919050565b6000611f6982611efe565b9050919050565b82818337600083830152505050565b60005b83811015611f9d578082015181840152602081019050611f82565b83811115611fac576000848401525b50505050565b6000601f19601f8301169050919050565b611fcc81611eda565b8114611fd757600080fd5b50565b611fe381611f1e565b8114611fee57600080fd5b5056fea365627a7a7231582014d76651ca6ac3f4ee9dc14e8a9702bce3d76676d7ddea6be4157588edec4ad76c6578706572696d656e74616cf564736f6c63430005100040",
  "source": "pragma solidity ^0.5.16;\r\npragma experimental ABIEncoderV2;\r\n\r\ncontract Photolla {\r\n  string public name = \"Photolla\";\r\n  uint public creatorCount = 0;\r\n  //uint public imageCount = 0;\r\n\tmapping(uint => Creator) public creators;\r\n  mapping(address => uint) public creatorIDs;\r\n\tmapping(address => Image[]) public images;\r\n  /*A mapping is essentially a key-value store for storing and looking up data.\r\n  key is an uint, value is an Image*/\r\n\r\n  struct Creator {\r\n\t  uint creatorId;\r\n    uint imageCount;\r\n\t  address creatorAddress;\r\n\t  string creatorName;\r\n    string defaultProfile;\r\n    string profileHash;\r\n    string bio;\r\n  }\r\n\r\n  event CreatorNameCreated(\r\n    uint creatorId,\r\n    uint imageCount,\r\n    address creatorAddress,\r\n    string creatorName,\r\n    string defaultProfile,\r\n    string profileHash,\r\n    string bio\r\n\t);\r\n\r\n  struct Image {\r\n\t  uint imageId;\r\n\t  string hash;\r\n\t  string description;\r\n\t  uint tipAmount;\r\n\t  address payable author; //mechanism to collect or receive fund to the contract\r\n  }\r\n\r\n  event ImageCreated(\r\n    uint imageId,\r\n    string hash,\r\n    string description,\r\n    uint tipAmount,\r\n    address payable author\r\n  );\r\n\r\n  event ImageTipped(\r\n    uint imageId,\r\n    string hash,\r\n    string description,\r\n    uint tipAmount,\r\n    address payable author\r\n  );\r\n/*\r\nEvent is an inheritable member of a contract.\r\nAn event is emitted, it stores the arguments passed in transaction logs.\r\nThese logs are stored on blockchain and are accessible using address of the contract\r\nhttps://www.tutorialspoint.com/solidity/solidity_events.htm\r\nEvents are a way for your contract to communicate that something happened on the blockchain to your app front-end,\r\nwhich can be 'listening' for certain events and take action when they happen*/\r\n\r\n  function getImage(address creatorAddress, uint imageId) public returns (Image memory image) {\r\n    return images[creatorAddress][imageId];\r\n  }\r\n\r\n  function getImages(address creatorAddress) public returns (Image[] memory creatorImages) {\r\n    return images[creatorAddress];\r\n  }\r\n\r\n//add creator name\r\n\tfunction newCreator(string memory _creatorName, string memory _profileHash, string memory _defaultProfile, string memory _bio) public {\r\n\t\trequire(msg.sender != address(0x0));\r\n\t\trequire(bytes(_creatorName).length > 0);\r\n\t\tcreatorCount++;\r\n    creatorIDs[msg.sender] = creatorCount;\r\n\t\tcreators[creatorCount] = Creator(creatorCount, 0, msg.sender, _creatorName, _defaultProfile, _profileHash, _bio);\r\n\t\temit CreatorNameCreated(creatorCount, 0, msg.sender, _creatorName, _defaultProfile, _profileHash, _bio);\r\n\t}\r\n\r\n//create image\r\n  function uploadImage(string memory _imageHash, string memory _description) public {\r\n\t  //Make sure image hash exist\r\n\t  require(bytes(_imageHash).length > 0);\r\n\t  //Make sure description exists\r\n\t  require(bytes(_description).length > 0);\r\n\t  //Make sure uploader address exists\r\n\t  require(msg.sender != address(0x0));\r\n\t  //Add image to contract\r\n\t  //msg.sender: refers to the address of the person (or smart contract) who called the current function.\r\n    creators[creatorIDs[msg.sender]].imageCount++;\r\n    images[msg.sender].push(Image(creators[creatorIDs[msg.sender]].imageCount, _imageHash, _description, 0, msg.sender));\r\n\t  emit ImageCreated(creators[creatorIDs[msg.sender]].imageCount, _imageHash, _description, 0, msg.sender);\r\n  }\r\n\r\n//create profile image\r\n  function uploadProfileImage(string memory _imageHash) public {\r\n    require(bytes(_imageHash).length > 0);\r\n    require(msg.sender != address(0x0));\r\n\r\n    creators[creatorIDs[msg.sender]].profileHash = _imageHash;\r\n  }\r\n\r\n  function tipImageOwner(address creatorAddress, uint imageID) public payable {\r\n\t  Image memory _image = images[creatorAddress][imageID];\r\n\t  address payable _author = _image.author;\r\n\t  //pay the author by sending them ether\r\n\t  address(_author).transfer(msg.value);\r\n\t  //increment the tip amount\r\n\t  //update the image\r\n\t  images[creatorAddress][imageID].tipAmount += msg.value;\r\n    \t  //trigger an event\r\n\t  emit ImageTipped(_image.imageId, _image.hash, _image.description, _image.tipAmount, _author);\r\n  }\r\n}\r\n",
  "sourcePath": "C:\\Users\\Hoo Yun Zhe\\Desktop\\Source Files and Programs\\HackFS\\Photolla\\Photolla\\src\\contracts\\Photolla.sol",
  "compiler": {
    "name": "solc",
    "version": "0.5.16+commit.9c3226ce.Emscripten.clang"
  },
  "schemaVersion": "3.4.2",
  "updatedAt": "2021-08-15T10:45:15.758Z",
  "networkType": "ethereum",
  "devdoc": {
    "methods": {}
  },
  "userdoc": {
    "methods": {}
  }
}