{
  "contractName": "Photolla",
  "abi": [
    {
      "anonymous": false,
      "inputs": [
        {
          "indexed": false,
          "internalType": "uint256",
          "name": "creatorId",
          "type": "uint256"
        },
        {
          "indexed": false,
          "internalType": "uint256",
          "name": "imageCount",
          "type": "uint256"
        },
        {
          "indexed": false,
          "internalType": "address",
          "name": "creatorAddress",
          "type": "address"
        },
        {
          "indexed": false,
          "internalType": "string",
          "name": "creatorName",
          "type": "string"
        },
        {
          "indexed": false,
          "internalType": "string",
          "name": "defaultProfile",
          "type": "string"
        },
        {
          "indexed": false,
          "internalType": "string",
          "name": "profileHash",
          "type": "string"
        },
        {
          "indexed": false,
          "internalType": "string",
          "name": "bio",
          "type": "string"
        }
      ],
      "name": "CreatorNameCreated",
      "type": "event"
    },
    {
      "anonymous": false,
      "inputs": [
        {
          "indexed": false,
          "internalType": "uint256",
          "name": "imageId",
          "type": "uint256"
        },
        {
          "indexed": false,
          "internalType": "string",
          "name": "hash",
          "type": "string"
        },
        {
          "indexed": false,
          "internalType": "string",
          "name": "description",
          "type": "string"
        },
        {
          "indexed": false,
          "internalType": "uint256",
          "name": "tipAmount",
          "type": "uint256"
        },
        {
          "indexed": false,
          "internalType": "address payable",
          "name": "author",
          "type": "address"
        }
      ],
      "name": "ImageCreated",
      "type": "event"
    },
    {
      "anonymous": false,
      "inputs": [
        {
          "indexed": false,
          "internalType": "uint256",
          "name": "imageId",
          "type": "uint256"
        },
        {
          "indexed": false,
          "internalType": "string",
          "name": "hash",
          "type": "string"
        },
        {
          "indexed": false,
          "internalType": "string",
          "name": "description",
          "type": "string"
        },
        {
          "indexed": false,
          "internalType": "uint256",
          "name": "tipAmount",
          "type": "uint256"
        },
        {
          "indexed": false,
          "internalType": "address payable",
          "name": "author",
          "type": "address"
        }
      ],
      "name": "ImageTipped",
      "type": "event"
    },
    {
      "constant": true,
      "inputs": [],
      "name": "creatorCount",
      "outputs": [
        {
          "internalType": "uint256",
          "name": "",
          "type": "uint256"
        }
      ],
      "payable": false,
      "stateMutability": "view",
      "type": "function"
    },
    {
      "constant": true,
      "inputs": [
        {
          "internalType": "address",
          "name": "",
          "type": "address"
        }
      ],
      "name": "creatorIDs",
      "outputs": [
        {
          "internalType": "uint256",
          "name": "",
          "type": "uint256"
        }
      ],
      "payable": false,
      "stateMutability": "view",
      "type": "function"
    },
    {
      "constant": true,
      "inputs": [
        {
          "internalType": "uint256",
          "name": "",
          "type": "uint256"
        }
      ],
      "name": "creators",
      "outputs": [
        {
          "internalType": "uint256",
          "name": "creatorId",
          "type": "uint256"
        },
        {
          "internalType": "uint256",
          "name": "imageCount",
          "type": "uint256"
        },
        {
          "internalType": "address",
          "name": "creatorAddress",
          "type": "address"
        },
        {
          "internalType": "string",
          "name": "creatorName",
          "type": "string"
        },
        {
          "internalType": "string",
          "name": "defaultProfile",
          "type": "string"
        },
        {
          "internalType": "string",
          "name": "profileHash",
          "type": "string"
        },
        {
          "internalType": "string",
          "name": "bio",
          "type": "string"
        }
      ],
      "payable": false,
      "stateMutability": "view",
      "type": "function"
    },
    {
      "constant": true,
      "inputs": [
        {
          "internalType": "address",
          "name": "",
          "type": "address"
        },
        {
          "internalType": "uint256",
          "name": "",
          "type": "uint256"
        }
      ],
      "name": "images",
      "outputs": [
        {
          "internalType": "uint256",
          "name": "imageId",
          "type": "uint256"
        },
        {
          "internalType": "string",
          "name": "hash",
          "type": "string"
        },
        {
          "internalType": "string",
          "name": "description",
          "type": "string"
        },
        {
          "internalType": "uint256",
          "name": "tipAmount",
          "type": "uint256"
        },
        {
          "internalType": "address payable",
          "name": "author",
          "type": "address"
        }
      ],
      "payable": false,
      "stateMutability": "view",
      "type": "function"
    },
    {
      "constant": true,
      "inputs": [],
      "name": "name",
      "outputs": [
        {
          "internalType": "string",
          "name": "",
          "type": "string"
        }
      ],
      "payable": false,
      "stateMutability": "view",
      "type": "function"
    },
    {
      "constant": false,
      "inputs": [
        {
          "internalType": "address",
          "name": "creatorAddress",
          "type": "address"
        }
      ],
      "name": "getImages",
      "outputs": [
        {
          "components": [
            {
              "internalType": "uint256",
              "name": "imageId",
              "type": "uint256"
            },
            {
              "internalType": "string",
              "name": "hash",
              "type": "string"
            },
            {
              "internalType": "string",
              "name": "description",
              "type": "string"
            },
            {
              "internalType": "uint256",
              "name": "tipAmount",
              "type": "uint256"
            },
            {
              "internalType": "address payable",
              "name": "author",
              "type": "address"
            }
          ],
          "internalType": "struct Photolla.Image[]",
          "name": "creatorImages",
          "type": "tuple[]"
        }
      ],
      "payable": false,
      "stateMutability": "nonpayable",
      "type": "function"
    },
    {
      "constant": false,
      "inputs": [
        {
          "internalType": "string",
          "name": "_creatorName",
          "type": "string"
        },
        {
          "internalType": "string",
          "name": "_profileHash",
          "type": "string"
        },
        {
          "internalType": "string",
          "name": "_defaultProfile",
          "type": "string"
        },
        {
          "internalType": "string",
          "name": "_bio",
          "type": "string"
        }
      ],
      "name": "newCreator",
      "outputs": [],
      "payable": false,
      "stateMutability": "nonpayable",
      "type": "function"
    },
    {
      "constant": false,
      "inputs": [
        {
          "internalType": "string",
          "name": "_imageHash",
          "type": "string"
        },
        {
          "internalType": "string",
          "name": "_description",
          "type": "string"
        }
      ],
      "name": "uploadImage",
      "outputs": [],
      "payable": false,
      "stateMutability": "nonpayable",
      "type": "function"
    },
    {
      "constant": false,
      "inputs": [
        {
          "internalType": "string",
          "name": "_imageHash",
          "type": "string"
        }
      ],
      "name": "uploadProfileImage",
      "outputs": [],
      "payable": false,
      "stateMutability": "nonpayable",
      "type": "function"
    },
    {
      "constant": false,
      "inputs": [
        {
          "internalType": "address",
          "name": "creatorAdd",
          "type": "address"
        },
        {
          "internalType": "uint256",
          "name": "imageID",
          "type": "uint256"
        }
      ],
      "name": "tipImageOwner",
      "outputs": [],
      "payable": true,
      "stateMutability": "payable",
      "type": "function"
    }
  ],
  "bytecode": "0x60806040526040518060400160405280600881526020017f50686f746f6c6c6100000000000000000000000000000000000000000000000081525060009080519060200190620000519291906200006b565b5060006001553480156200006457600080fd5b506200011a565b828054600181600116156101000203166002900490600052602060002090601f016020900481019282601f10620000ae57805160ff1916838001178555620000df565b82800160010185558215620000df579182015b82811115620000de578251825591602001919060010190620000c1565b5b509050620000ee9190620000f2565b5090565b6200011791905b8082111562000113576000816000905550600101620000f9565b5090565b90565b611dcc806200012a6000396000f3fe6080604052600436106100915760003560e01c80638a8b177f116100595780638a8b177f14610198578063a6272c83146101c1578063a91b8314146101ea578063cd53d08e14610213578063d82faa481461025657610091565b8063056aef4c1461009657806306fdde03146100d35780632ac33792146100fe5780633742b2bd1461013f5780636b7468fa1461015b575b600080fd5b3480156100a257600080fd5b506100bd60048036036100b89190810190611559565b610281565b6040516100ca91906119b5565b60405180910390f35b3480156100df57600080fd5b506100e8610299565b6040516100f59190611993565b60405180910390f35b34801561010a57600080fd5b5061012560048036036101209190810190611582565b610337565b604051610136959493929190611abc565b60405180910390f35b61015960048036036101549190810190611582565b6104d7565b005b34801561016757600080fd5b50610182600480360361017d9190810190611559565b6108a0565b60405161018f9190611971565b60405180910390f35b3480156101a457600080fd5b506101bf60048036036101ba91908101906115be565b610aec565b005b3480156101cd57600080fd5b506101e860048036036101e3919081019061166b565b610ba1565b005b3480156101f657600080fd5b50610211600480360361020c91908101906115ff565b610dc0565b005b34801561021f57600080fd5b5061023a6004803603610235919081019061172e565b6110a9565b60405161024d9796959493929190611b1d565b60405180910390f35b34801561026257600080fd5b5061026b61136b565b60405161027891906119b5565b60405180910390f35b60036020528060005260406000206000915090505481565b60008054600181600116156101000203166002900480601f01602080910402602001604051908101604052809291908181526020018280546001816001161561010002031660029004801561032f5780601f106103045761010080835404028352916020019161032f565b820191906000526020600020905b81548152906001019060200180831161031257829003601f168201915b505050505081565b6004602052816000526040600020818154811061035057fe5b906000526020600020906005020160009150915050806000015490806001018054600181600116156101000203166002900480601f0160208091040260200160405190810160405280929190818152602001828054600181600116156101000203166002900480156104035780601f106103d857610100808354040283529160200191610403565b820191906000526020600020905b8154815290600101906020018083116103e657829003601f168201915b505050505090806002018054600181600116156101000203166002900480601f0160208091040260200160405190810160405280929190818152602001828054600181600116156101000203166002900480156104a15780601f10610476576101008083540402835291602001916104a1565b820191906000526020600020905b81548152906001019060200180831161048457829003601f168201915b5050505050908060030154908060040160009054906101000a900473ffffffffffffffffffffffffffffffffffffffff16905085565b6104df611371565b600460008473ffffffffffffffffffffffffffffffffffffffff1673ffffffffffffffffffffffffffffffffffffffff168152602001908152602001600020828154811061052957fe5b90600052602060002090600502016040518060a001604052908160008201548152602001600182018054600181600116156101000203166002900480601f0160208091040260200160405190810160405280929190818152602001828054600181600116156101000203166002900480156105e55780601f106105ba576101008083540402835291602001916105e5565b820191906000526020600020905b8154815290600101906020018083116105c857829003601f168201915b50505050508152602001600282018054600181600116156101000203166002900480601f0160208091040260200160405190810160405280929190818152602001828054600181600116156101000203166002900480156106875780601f1061065c57610100808354040283529160200191610687565b820191906000526020600020905b81548152906001019060200180831161066a57829003601f168201915b50505050508152602001600382015481526020016004820160009054906101000a900473ffffffffffffffffffffffffffffffffffffffff1673ffffffffffffffffffffffffffffffffffffffff1673ffffffffffffffffffffffffffffffffffffffff168152505090506000816080015190508073ffffffffffffffffffffffffffffffffffffffff166108fc349081150290604051600060405180830381858888f19350505050158015610741573d6000803e3d6000fd5b50348260600151018260600181815250508160046000846080015173ffffffffffffffffffffffffffffffffffffffff1673ffffffffffffffffffffffffffffffffffffffff1681526020019081526020016000208360000151815481106107a557fe5b90600052602060002090600502016000820151816000015560208201518160010190805190602001906107d99291906113b6565b5060408201518160020190805190602001906107f69291906113b6565b506060820151816003015560808201518160040160006101000a81548173ffffffffffffffffffffffffffffffffffffffff021916908373ffffffffffffffffffffffffffffffffffffffff1602179055509050507f1be5317bca8d3f70dc1efe89958be71bff36cdca33fc00a6423e25eb2f1d492f826000015183602001518460400151856060015185604051610892959493929190611abc565b60405180910390a150505050565b6060600460008373ffffffffffffffffffffffffffffffffffffffff1673ffffffffffffffffffffffffffffffffffffffff168152602001908152602001600020805480602002602001604051908101604052809291908181526020016000905b82821015610ae157838290600052602060002090600502016040518060a001604052908160008201548152602001600182018054600181600116156101000203166002900480601f0160208091040260200160405190810160405280929190818152602001828054600181600116156101000203166002900480156109c75780601f1061099c576101008083540402835291602001916109c7565b820191906000526020600020905b8154815290600101906020018083116109aa57829003601f168201915b50505050508152602001600282018054600181600116156101000203166002900480601f016020809104026020016040519081016040528092919081815260200182805460018160011615610100020316600290048015610a695780601f10610a3e57610100808354040283529160200191610a69565b820191906000526020600020905b815481529060010190602001808311610a4c57829003601f168201915b50505050508152602001600382015481526020016004820160009054906101000a900473ffffffffffffffffffffffffffffffffffffffff1673ffffffffffffffffffffffffffffffffffffffff1673ffffffffffffffffffffffffffffffffffffffff168152505081526020019060010190610901565b505050509050919050565b6000815111610afa57600080fd5b600073ffffffffffffffffffffffffffffffffffffffff163373ffffffffffffffffffffffffffffffffffffffff161415610b3457600080fd5b8060026000600360003373ffffffffffffffffffffffffffffffffffffffff1673ffffffffffffffffffffffffffffffffffffffff1681526020019081526020016000205481526020019081526020016000206005019080519060200190610b9d929190611436565b5050565b600073ffffffffffffffffffffffffffffffffffffffff163373ffffffffffffffffffffffffffffffffffffffff161415610bdb57600080fd5b6000845111610be957600080fd5b600160008154809291906001019190505550600154600360003373ffffffffffffffffffffffffffffffffffffffff1673ffffffffffffffffffffffffffffffffffffffff168152602001908152602001600020819055506040518060e001604052806001548152602001600081526020013373ffffffffffffffffffffffffffffffffffffffff16815260200185815260200183815260200184815260200182815250600260006001548152602001908152602001600020600082015181600001556020820151816001015560408201518160020160006101000a81548173ffffffffffffffffffffffffffffffffffffffff021916908373ffffffffffffffffffffffffffffffffffffffff1602179055506060820151816003019080519060200190610d199291906113b6565b506080820151816004019080519060200190610d369291906113b6565b5060a0820151816005019080519060200190610d539291906113b6565b5060c0820151816006019080519060200190610d709291906113b6565b509050507f60078ff026821e9434821825a17dc0e2d168857b38f8071b87752a886acc31fd60015460003387868887604051610db297969594939291906119d0565b60405180910390a150505050565b6000825111610dce57600080fd5b6000815111610ddc57600080fd5b600073ffffffffffffffffffffffffffffffffffffffff163373ffffffffffffffffffffffffffffffffffffffff161415610e1657600080fd5b60026000600360003373ffffffffffffffffffffffffffffffffffffffff1673ffffffffffffffffffffffffffffffffffffffff16815260200190815260200160002054815260200190815260200160002060010160008154809291906001019190505550600460003373ffffffffffffffffffffffffffffffffffffffff1673ffffffffffffffffffffffffffffffffffffffff1681526020019081526020016000206040518060a0016040528060026000600360003373ffffffffffffffffffffffffffffffffffffffff1673ffffffffffffffffffffffffffffffffffffffff168152602001908152602001600020548152602001908152602001600020600101548152602001848152602001838152602001600081526020013373ffffffffffffffffffffffffffffffffffffffff1681525090806001815401808255809150509060018203906000526020600020906005020160009091929091909150600082015181600001556020820151816001019080519060200190610f9e9291906113b6565b506040820151816002019080519060200190610fbb9291906113b6565b506060820151816003015560808201518160040160006101000a81548173ffffffffffffffffffffffffffffffffffffffff021916908373ffffffffffffffffffffffffffffffffffffffff1602179055505050507fc1d8dfa99b3f84f95d3f0bc4a768addeb97b83b20aef7f9cb6729e126bafd2f960026000600360003373ffffffffffffffffffffffffffffffffffffffff1673ffffffffffffffffffffffffffffffffffffffff16815260200190815260200160002054815260200190815260200160002060010154838360003360405161109d959493929190611a5b565b60405180910390a15050565b60026020528060005260406000206000915090508060000154908060010154908060020160009054906101000a900473ffffffffffffffffffffffffffffffffffffffff1690806003018054600181600116156101000203166002900480601f0160208091040260200160405190810160405280929190818152602001828054600181600116156101000203166002900480156111875780601f1061115c57610100808354040283529160200191611187565b820191906000526020600020905b81548152906001019060200180831161116a57829003601f168201915b505050505090806004018054600181600116156101000203166002900480601f0160208091040260200160405190810160405280929190818152602001828054600181600116156101000203166002900480156112255780601f106111fa57610100808354040283529160200191611225565b820191906000526020600020905b81548152906001019060200180831161120857829003601f168201915b505050505090806005018054600181600116156101000203166002900480601f0160208091040260200160405190810160405280929190818152602001828054600181600116156101000203166002900480156112c35780601f10611298576101008083540402835291602001916112c3565b820191906000526020600020905b8154815290600101906020018083116112a657829003601f168201915b505050505090806006018054600181600116156101000203166002900480601f0160208091040260200160405190810160405280929190818152602001828054600181600116156101000203166002900480156113615780601f1061133657610100808354040283529160200191611361565b820191906000526020600020905b81548152906001019060200180831161134457829003601f168201915b5050505050905087565b60015481565b6040518060a0016040528060008152602001606081526020016060815260200160008152602001600073ffffffffffffffffffffffffffffffffffffffff1681525090565b828054600181600116156101000203166002900490600052602060002090601f016020900481019282601f106113f757805160ff1916838001178555611425565b82800160010185558215611425579182015b82811115611424578251825591602001919060010190611409565b5b50905061143291906114b6565b5090565b828054600181600116156101000203166002900490600052602060002090601f016020900481019282601f1061147757805160ff19168380011785556114a5565b828001600101855582156114a5579182015b828111156114a4578251825591602001919060010190611489565b5b5090506114b291906114b6565b5090565b6114d891905b808211156114d45760008160009055506001016114bc565b5090565b90565b6000813590506114ea81611d5b565b92915050565b600082601f83011261150157600080fd5b813561151461150f82611bd5565b611ba8565b9150808252602083016020830185838301111561153057600080fd5b61153b838284611d08565b50505092915050565b60008135905061155381611d72565b92915050565b60006020828403121561156b57600080fd5b6000611579848285016114db565b91505092915050565b6000806040838503121561159557600080fd5b60006115a3858286016114db565b92505060206115b485828601611544565b9150509250929050565b6000602082840312156115d057600080fd5b600082013567ffffffffffffffff8111156115ea57600080fd5b6115f6848285016114f0565b91505092915050565b6000806040838503121561161257600080fd5b600083013567ffffffffffffffff81111561162c57600080fd5b611638858286016114f0565b925050602083013567ffffffffffffffff81111561165557600080fd5b611661858286016114f0565b9150509250929050565b6000806000806080858703121561168157600080fd5b600085013567ffffffffffffffff81111561169b57600080fd5b6116a7878288016114f0565b945050602085013567ffffffffffffffff8111156116c457600080fd5b6116d0878288016114f0565b935050604085013567ffffffffffffffff8111156116ed57600080fd5b6116f9878288016114f0565b925050606085013567ffffffffffffffff81111561171657600080fd5b611722878288016114f0565b91505092959194509250565b60006020828403121561174057600080fd5b600061174e84828501611544565b91505092915050565b600061176383836118d6565b905092915050565b61177481611cc0565b82525050565b61178381611c84565b82525050565b61179281611c84565b82525050565b6117a181611c72565b82525050565b60006117b282611c11565b6117bc8185611c3f565b9350836020820285016117ce85611c01565b8060005b8581101561180a57848403895281516117eb8582611757565b94506117f683611c32565b925060208a019950506001810190506117d2565b50829750879550505050505092915050565b61182581611cd2565b82525050565b600061183682611c27565b6118408185611c61565b9350611850818560208601611d17565b61185981611d4a565b840191505092915050565b600061186f82611c1c565b6118798185611c50565b9350611889818560208601611d17565b61189281611d4a565b840191505092915050565b60006118a882611c1c565b6118b28185611c61565b93506118c2818560208601611d17565b6118cb81611d4a565b840191505092915050565b600060a0830160008301516118ee6000860182611953565b50602083015184820360208601526119068282611864565b915050604083015184820360408601526119208282611864565b91505060608301516119356060860182611953565b506080830151611948608086018261177a565b508091505092915050565b61195c81611cb6565b82525050565b61196b81611cb6565b82525050565b6000602082019050818103600083015261198b81846117a7565b905092915050565b600060208201905081810360008301526119ad818461189d565b905092915050565b60006020820190506119ca6000830184611962565b92915050565b600060e0820190506119e5600083018a611962565b6119f2602083018961181c565b6119ff604083018861176b565b8181036060830152611a11818761182b565b90508181036080830152611a25818661182b565b905081810360a0830152611a39818561182b565b905081810360c0830152611a4d818461182b565b905098975050505050505050565b600060a082019050611a706000830188611962565b8181036020830152611a82818761182b565b90508181036040830152611a96818661182b565b9050611aa5606083018561181c565b611ab26080830184611789565b9695505050505050565b600060a082019050611ad16000830188611962565b8181036020830152611ae3818761189d565b90508181036040830152611af7818661189d565b9050611b066060830185611962565b611b136080830184611789565b9695505050505050565b600060e082019050611b32600083018a611962565b611b3f6020830189611962565b611b4c6040830188611798565b8181036060830152611b5e818761189d565b90508181036080830152611b72818661189d565b905081810360a0830152611b86818561189d565b905081810360c0830152611b9a818461189d565b905098975050505050505050565b6000604051905081810181811067ffffffffffffffff82111715611bcb57600080fd5b8060405250919050565b600067ffffffffffffffff821115611bec57600080fd5b601f19601f8301169050602081019050919050565b6000819050602082019050919050565b600081519050919050565b600081519050919050565b600081519050919050565b6000602082019050919050565b600082825260208201905092915050565b600082825260208201905092915050565b600082825260208201905092915050565b6000611c7d82611c96565b9050919050565b6000611c8f82611c96565b9050919050565b600073ffffffffffffffffffffffffffffffffffffffff82169050919050565b6000819050919050565b6000611ccb82611ce4565b9050919050565b6000611cdd82611cb6565b9050919050565b6000611cef82611cf6565b9050919050565b6000611d0182611c96565b9050919050565b82818337600083830152505050565b60005b83811015611d35578082015181840152602081019050611d1a565b83811115611d44576000848401525b50505050565b6000601f19601f8301169050919050565b611d6481611c72565b8114611d6f57600080fd5b50565b611d7b81611cb6565b8114611d8657600080fd5b5056fea365627a7a7231582016646e84585f2ce3e49d8ecb94f5b1c19a6ee11c20984290e366aa05397087466c6578706572696d656e74616cf564736f6c63430005100040",
  "source": "pragma solidity ^0.5.16;\r\npragma experimental ABIEncoderV2;\r\n\r\ncontract Photolla {\r\n  string public name = \"Photolla\";\r\n  uint public creatorCount = 0;\r\n  //uint public imageCount = 0;\r\n\tmapping(uint => Creator) public creators;\r\n  mapping(address => uint) public creatorIDs;\r\n\tmapping(address => Image[]) public images;\r\n  /*A mapping is essentially a key-value store for storing and looking up data.\r\n  key is an uint, value is an Image*/\r\n\r\n  struct Creator {\r\n\t  uint creatorId;\r\n    uint imageCount;\r\n\t  address creatorAddress;\r\n\t  string creatorName;\r\n    string defaultProfile;\r\n    string profileHash;\r\n    string bio;\r\n  }\r\n\r\n  event CreatorNameCreated(\r\n    uint creatorId,\r\n    uint imageCount,\r\n    address creatorAddress,\r\n    string creatorName,\r\n    string defaultProfile,\r\n    string profileHash,\r\n    string bio\r\n\t);\r\n\r\n  struct Image {\r\n\t  uint imageId;\r\n\t  string hash;\r\n\t  string description;\r\n\t  uint tipAmount;\r\n\t  address payable author; //mechanism to collect or receive fund to the contract\r\n  }\r\n\r\n  event ImageCreated(\r\n    uint imageId,\r\n    string hash,\r\n    string description,\r\n    uint tipAmount,\r\n    address payable author\r\n  );\r\n\r\n  event ImageTipped(\r\n    uint imageId,\r\n    string hash,\r\n    string description,\r\n    uint tipAmount,\r\n    address payable author\r\n  );\r\n/*\r\nEvent is an inheritable member of a contract.\r\nAn event is emitted, it stores the arguments passed in transaction logs.\r\nThese logs are stored on blockchain and are accessible using address of the contract\r\nhttps://www.tutorialspoint.com/solidity/solidity_events.htm\r\nEvents are a way for your contract to communicate that something happened on the blockchain to your app front-end,\r\nwhich can be 'listening' for certain events and take action when they happen*/\r\n\r\n  function getImages(address creatorAddress) public returns (Image[] memory creatorImages) {\r\n    return images[creatorAddress];\r\n  }\r\n\r\n//add creator name\r\n\tfunction newCreator(string memory _creatorName, string memory _profileHash, string memory _defaultProfile, string memory _bio) public {\r\n\t\trequire(msg.sender != address(0x0));\r\n\t\trequire(bytes(_creatorName).length > 0);\r\n\t\tcreatorCount++;\r\n    creatorIDs[msg.sender] = creatorCount;\r\n\t\tcreators[creatorCount] = Creator(creatorCount, 0, msg.sender, _creatorName, _defaultProfile, _profileHash, _bio);\r\n\t\temit CreatorNameCreated(creatorCount, 0, msg.sender, _creatorName, _defaultProfile, _profileHash, _bio);\r\n\t}\r\n\r\n//create image\r\n  function uploadImage(string memory _imageHash, string memory _description) public {\r\n\t  //Make sure image hash exist\r\n\t  require(bytes(_imageHash).length > 0);\r\n\t  //Make sure description exists\r\n\t  require(bytes(_description).length > 0);\r\n\t  //Make sure uploader address exists\r\n\t  require(msg.sender != address(0x0));\r\n\t  //Add image to contract\r\n\t  //msg.sender: refers to the address of the person (or smart contract) who called the current function.\r\n    creators[creatorIDs[msg.sender]].imageCount++;\r\n    images[msg.sender].push(Image(creators[creatorIDs[msg.sender]].imageCount, _imageHash, _description, 0, msg.sender));\r\n\t  emit ImageCreated(creators[creatorIDs[msg.sender]].imageCount, _imageHash, _description, 0, msg.sender);\r\n  }\r\n\r\n//create profile image\r\n  function uploadProfileImage(string memory _imageHash) public {\r\n    require(bytes(_imageHash).length > 0);\r\n    require(msg.sender != address(0x0));\r\n\r\n    creators[creatorIDs[msg.sender]].profileHash = _imageHash;\r\n  }\r\n\r\n  function tipImageOwner(address creatorAdd, uint imageID) public payable {\r\n\t  //make sure the id is valid\r\n\t  //require(_id > 0 && _id <= imageCount);\r\n\t  //fetch the image\r\n\t  Image memory _image = images[creatorAdd][imageID];\r\n\t  address payable _author = _image.author;\r\n\t  //pay the author by sending them ether\r\n\t  address(_author).transfer(msg.value);\r\n\t  //increment the tip amount\r\n\t  _image.tipAmount = _image.tipAmount + msg.value;\r\n\t  //update the image\r\n\t  images[_image.author][_image.imageId] = _image;\r\n\t  //trigger an event\r\n\t  emit ImageTipped(_image.imageId, _image.hash, _image.description, _image.tipAmount, _author);\r\n  }\r\n}\r\n",
  "sourcePath": "C:\\Users\\Hoo Yun Zhe\\Desktop\\Source Files and Programs\\HackFS\\Photolla\\Photolla\\src\\contracts\\Photolla.sol",
  "compiler": {
    "name": "solc",
    "version": "0.5.16+commit.9c3226ce.Emscripten.clang"
  },
  "schemaVersion": "3.4.2",
  "updatedAt": "2021-08-13T09:58:19.852Z",
  "networkType": "ethereum",
  "devdoc": {
    "methods": {}
  },
  "userdoc": {
    "methods": {}
  }
}