{
  "contractName": "Photolla",
  "abi": [
    {
      "anonymous": false,
      "inputs": [
        {
          "indexed": false,
          "internalType": "uint256",
          "name": "creatorId",
          "type": "uint256"
        },
        {
          "indexed": false,
          "internalType": "uint256",
          "name": "imageCount",
          "type": "uint256"
        },
        {
          "indexed": false,
          "internalType": "address",
          "name": "creatorAddress",
          "type": "address"
        },
        {
          "indexed": false,
          "internalType": "string",
          "name": "creatorName",
          "type": "string"
        },
        {
          "indexed": false,
          "internalType": "string",
          "name": "defaultProfile",
          "type": "string"
        },
        {
          "indexed": false,
          "internalType": "string",
          "name": "profileHash",
          "type": "string"
        },
        {
          "indexed": false,
          "internalType": "string",
          "name": "bio",
          "type": "string"
        }
      ],
      "name": "CreatorNameCreated",
      "type": "event"
    },
    {
      "anonymous": false,
      "inputs": [
        {
          "indexed": false,
          "internalType": "uint256",
          "name": "imageId",
          "type": "uint256"
        },
        {
          "indexed": false,
          "internalType": "string",
          "name": "hash",
          "type": "string"
        },
        {
          "indexed": false,
          "internalType": "string",
          "name": "description",
          "type": "string"
        },
        {
          "indexed": false,
          "internalType": "uint256",
          "name": "tipAmount",
          "type": "uint256"
        },
        {
          "indexed": false,
          "internalType": "address payable",
          "name": "author",
          "type": "address"
        }
      ],
      "name": "ImageCreated",
      "type": "event"
    },
    {
      "anonymous": false,
      "inputs": [
        {
          "indexed": false,
          "internalType": "uint256",
          "name": "imageId",
          "type": "uint256"
        },
        {
          "indexed": false,
          "internalType": "string",
          "name": "hash",
          "type": "string"
        },
        {
          "indexed": false,
          "internalType": "string",
          "name": "description",
          "type": "string"
        },
        {
          "indexed": false,
          "internalType": "uint256",
          "name": "tipAmount",
          "type": "uint256"
        },
        {
          "indexed": false,
          "internalType": "address payable",
          "name": "author",
          "type": "address"
        }
      ],
      "name": "ImageTipped",
      "type": "event"
    },
    {
      "constant": true,
      "inputs": [],
      "name": "creatorCount",
      "outputs": [
        {
          "internalType": "uint256",
          "name": "",
          "type": "uint256"
        }
      ],
      "payable": false,
      "stateMutability": "view",
      "type": "function"
    },
    {
      "constant": true,
      "inputs": [
        {
          "internalType": "address",
          "name": "",
          "type": "address"
        }
      ],
      "name": "creatorIDs",
      "outputs": [
        {
          "internalType": "uint256",
          "name": "",
          "type": "uint256"
        }
      ],
      "payable": false,
      "stateMutability": "view",
      "type": "function"
    },
    {
      "constant": true,
      "inputs": [
        {
          "internalType": "uint256",
          "name": "",
          "type": "uint256"
        }
      ],
      "name": "creators",
      "outputs": [
        {
          "internalType": "uint256",
          "name": "creatorId",
          "type": "uint256"
        },
        {
          "internalType": "uint256",
          "name": "imageCount",
          "type": "uint256"
        },
        {
          "internalType": "address",
          "name": "creatorAddress",
          "type": "address"
        },
        {
          "internalType": "string",
          "name": "creatorName",
          "type": "string"
        },
        {
          "internalType": "string",
          "name": "defaultProfile",
          "type": "string"
        },
        {
          "internalType": "string",
          "name": "profileHash",
          "type": "string"
        },
        {
          "internalType": "string",
          "name": "bio",
          "type": "string"
        }
      ],
      "payable": false,
      "stateMutability": "view",
      "type": "function"
    },
    {
      "constant": true,
      "inputs": [
        {
          "internalType": "address",
          "name": "",
          "type": "address"
        },
        {
          "internalType": "uint256",
          "name": "",
          "type": "uint256"
        }
      ],
      "name": "images",
      "outputs": [
        {
          "internalType": "uint256",
          "name": "imageId",
          "type": "uint256"
        },
        {
          "internalType": "string",
          "name": "hash",
          "type": "string"
        },
        {
          "internalType": "string",
          "name": "description",
          "type": "string"
        },
        {
          "internalType": "uint256",
          "name": "tipAmount",
          "type": "uint256"
        },
        {
          "internalType": "address payable",
          "name": "author",
          "type": "address"
        }
      ],
      "payable": false,
      "stateMutability": "view",
      "type": "function"
    },
    {
      "constant": true,
      "inputs": [],
      "name": "name",
      "outputs": [
        {
          "internalType": "string",
          "name": "",
          "type": "string"
        }
      ],
      "payable": false,
      "stateMutability": "view",
      "type": "function"
    },
    {
      "constant": false,
      "inputs": [
        {
          "internalType": "address",
          "name": "creatorAddress",
          "type": "address"
        }
      ],
      "name": "getImages",
      "outputs": [
        {
          "components": [
            {
              "internalType": "uint256",
              "name": "imageId",
              "type": "uint256"
            },
            {
              "internalType": "string",
              "name": "hash",
              "type": "string"
            },
            {
              "internalType": "string",
              "name": "description",
              "type": "string"
            },
            {
              "internalType": "uint256",
              "name": "tipAmount",
              "type": "uint256"
            },
            {
              "internalType": "address payable",
              "name": "author",
              "type": "address"
            }
          ],
          "internalType": "struct Photolla.Image[]",
          "name": "creatorImages",
          "type": "tuple[]"
        }
      ],
      "payable": false,
      "stateMutability": "nonpayable",
      "type": "function"
    },
    {
      "constant": false,
      "inputs": [
        {
          "internalType": "string",
          "name": "_creatorName",
          "type": "string"
        },
        {
          "internalType": "string",
          "name": "_profileHash",
          "type": "string"
        },
        {
          "internalType": "string",
          "name": "_defaultProfile",
          "type": "string"
        },
        {
          "internalType": "string",
          "name": "_bio",
          "type": "string"
        }
      ],
      "name": "newCreator",
      "outputs": [],
      "payable": false,
      "stateMutability": "nonpayable",
      "type": "function"
    },
    {
      "constant": false,
      "inputs": [
        {
          "internalType": "string",
          "name": "_imageHash",
          "type": "string"
        },
        {
          "internalType": "string",
          "name": "_description",
          "type": "string"
        }
      ],
      "name": "uploadImage",
      "outputs": [],
      "payable": false,
      "stateMutability": "nonpayable",
      "type": "function"
    },
    {
      "constant": false,
      "inputs": [
        {
          "internalType": "string",
          "name": "_imageHash",
          "type": "string"
        }
      ],
      "name": "uploadProfileImage",
      "outputs": [],
      "payable": false,
      "stateMutability": "nonpayable",
      "type": "function"
    },
    {
      "constant": false,
      "inputs": [
        {
          "internalType": "address",
          "name": "creatorAddress",
          "type": "address"
        },
        {
          "internalType": "uint256",
          "name": "imageID",
          "type": "uint256"
        }
      ],
      "name": "tipImageOwner",
      "outputs": [],
      "payable": true,
      "stateMutability": "payable",
      "type": "function"
    }
  ],
  "bytecode": "0x60806040526040518060400160405280600881526020017f50686f746f6c6c6100000000000000000000000000000000000000000000000081525060009080519060200190620000519291906200006b565b5060006001553480156200006457600080fd5b506200011a565b828054600181600116156101000203166002900490600052602060002090601f016020900481019282601f10620000ae57805160ff1916838001178555620000df565b82800160010185558215620000df579182015b82811115620000de578251825591602001919060010190620000c1565b5b509050620000ee9190620000f2565b5090565b6200011791905b8082111562000113576000816000905550600101620000f9565b5090565b90565b611d2c806200012a6000396000f3fe6080604052600436106100915760003560e01c80638a8b177f116100595780638a8b177f14610198578063a6272c83146101c1578063a91b8314146101ea578063cd53d08e14610213578063d82faa481461025657610091565b8063056aef4c1461009657806306fdde03146100d35780632ac33792146100fe5780633742b2bd1461013f5780636b7468fa1461015b575b600080fd5b3480156100a257600080fd5b506100bd60048036036100b891908101906114b9565b610281565b6040516100ca9190611915565b60405180910390f35b3480156100df57600080fd5b506100e8610299565b6040516100f591906118f3565b60405180910390f35b34801561010a57600080fd5b50610125600480360361012091908101906114e2565b610337565b604051610136959493929190611a1c565b60405180910390f35b610159600480360361015491908101906114e2565b6104d7565b005b34801561016757600080fd5b50610182600480360361017d91908101906114b9565b610800565b60405161018f91906118d1565b60405180910390f35b3480156101a457600080fd5b506101bf60048036036101ba919081019061151e565b610a4c565b005b3480156101cd57600080fd5b506101e860048036036101e391908101906115cb565b610b01565b005b3480156101f657600080fd5b50610211600480360361020c919081019061155f565b610d20565b005b34801561021f57600080fd5b5061023a6004803603610235919081019061168e565b611009565b60405161024d9796959493929190611a7d565b60405180910390f35b34801561026257600080fd5b5061026b6112cb565b6040516102789190611915565b60405180910390f35b60036020528060005260406000206000915090505481565b60008054600181600116156101000203166002900480601f01602080910402602001604051908101604052809291908181526020018280546001816001161561010002031660029004801561032f5780601f106103045761010080835404028352916020019161032f565b820191906000526020600020905b81548152906001019060200180831161031257829003601f168201915b505050505081565b6004602052816000526040600020818154811061035057fe5b906000526020600020906005020160009150915050806000015490806001018054600181600116156101000203166002900480601f0160208091040260200160405190810160405280929190818152602001828054600181600116156101000203166002900480156104035780601f106103d857610100808354040283529160200191610403565b820191906000526020600020905b8154815290600101906020018083116103e657829003601f168201915b505050505090806002018054600181600116156101000203166002900480601f0160208091040260200160405190810160405280929190818152602001828054600181600116156101000203166002900480156104a15780601f10610476576101008083540402835291602001916104a1565b820191906000526020600020905b81548152906001019060200180831161048457829003601f168201915b5050505050908060030154908060040160009054906101000a900473ffffffffffffffffffffffffffffffffffffffff16905085565b6104df6112d1565b600460008473ffffffffffffffffffffffffffffffffffffffff1673ffffffffffffffffffffffffffffffffffffffff168152602001908152602001600020828154811061052957fe5b90600052602060002090600502016040518060a001604052908160008201548152602001600182018054600181600116156101000203166002900480601f0160208091040260200160405190810160405280929190818152602001828054600181600116156101000203166002900480156105e55780601f106105ba576101008083540402835291602001916105e5565b820191906000526020600020905b8154815290600101906020018083116105c857829003601f168201915b50505050508152602001600282018054600181600116156101000203166002900480601f0160208091040260200160405190810160405280929190818152602001828054600181600116156101000203166002900480156106875780601f1061065c57610100808354040283529160200191610687565b820191906000526020600020905b81548152906001019060200180831161066a57829003601f168201915b50505050508152602001600382015481526020016004820160009054906101000a900473ffffffffffffffffffffffffffffffffffffffff1673ffffffffffffffffffffffffffffffffffffffff1673ffffffffffffffffffffffffffffffffffffffff168152505090506000816080015190508073ffffffffffffffffffffffffffffffffffffffff166108fc349081150290604051600060405180830381858888f19350505050158015610741573d6000803e3d6000fd5b5034600460008673ffffffffffffffffffffffffffffffffffffffff1673ffffffffffffffffffffffffffffffffffffffff168152602001908152602001600020848154811061078d57fe5b9060005260206000209060050201600301600082825401925050819055507f1be5317bca8d3f70dc1efe89958be71bff36cdca33fc00a6423e25eb2f1d492f8260000151836020015184604001518560600151856040516107f2959493929190611a1c565b60405180910390a150505050565b6060600460008373ffffffffffffffffffffffffffffffffffffffff1673ffffffffffffffffffffffffffffffffffffffff168152602001908152602001600020805480602002602001604051908101604052809291908181526020016000905b82821015610a4157838290600052602060002090600502016040518060a001604052908160008201548152602001600182018054600181600116156101000203166002900480601f0160208091040260200160405190810160405280929190818152602001828054600181600116156101000203166002900480156109275780601f106108fc57610100808354040283529160200191610927565b820191906000526020600020905b81548152906001019060200180831161090a57829003601f168201915b50505050508152602001600282018054600181600116156101000203166002900480601f0160208091040260200160405190810160405280929190818152602001828054600181600116156101000203166002900480156109c95780601f1061099e576101008083540402835291602001916109c9565b820191906000526020600020905b8154815290600101906020018083116109ac57829003601f168201915b50505050508152602001600382015481526020016004820160009054906101000a900473ffffffffffffffffffffffffffffffffffffffff1673ffffffffffffffffffffffffffffffffffffffff1673ffffffffffffffffffffffffffffffffffffffff168152505081526020019060010190610861565b505050509050919050565b6000815111610a5a57600080fd5b600073ffffffffffffffffffffffffffffffffffffffff163373ffffffffffffffffffffffffffffffffffffffff161415610a9457600080fd5b8060026000600360003373ffffffffffffffffffffffffffffffffffffffff1673ffffffffffffffffffffffffffffffffffffffff1681526020019081526020016000205481526020019081526020016000206005019080519060200190610afd929190611316565b5050565b600073ffffffffffffffffffffffffffffffffffffffff163373ffffffffffffffffffffffffffffffffffffffff161415610b3b57600080fd5b6000845111610b4957600080fd5b600160008154809291906001019190505550600154600360003373ffffffffffffffffffffffffffffffffffffffff1673ffffffffffffffffffffffffffffffffffffffff168152602001908152602001600020819055506040518060e001604052806001548152602001600081526020013373ffffffffffffffffffffffffffffffffffffffff16815260200185815260200183815260200184815260200182815250600260006001548152602001908152602001600020600082015181600001556020820151816001015560408201518160020160006101000a81548173ffffffffffffffffffffffffffffffffffffffff021916908373ffffffffffffffffffffffffffffffffffffffff1602179055506060820151816003019080519060200190610c79929190611396565b506080820151816004019080519060200190610c96929190611396565b5060a0820151816005019080519060200190610cb3929190611396565b5060c0820151816006019080519060200190610cd0929190611396565b509050507f60078ff026821e9434821825a17dc0e2d168857b38f8071b87752a886acc31fd60015460003387868887604051610d129796959493929190611930565b60405180910390a150505050565b6000825111610d2e57600080fd5b6000815111610d3c57600080fd5b600073ffffffffffffffffffffffffffffffffffffffff163373ffffffffffffffffffffffffffffffffffffffff161415610d7657600080fd5b60026000600360003373ffffffffffffffffffffffffffffffffffffffff1673ffffffffffffffffffffffffffffffffffffffff16815260200190815260200160002054815260200190815260200160002060010160008154809291906001019190505550600460003373ffffffffffffffffffffffffffffffffffffffff1673ffffffffffffffffffffffffffffffffffffffff1681526020019081526020016000206040518060a0016040528060026000600360003373ffffffffffffffffffffffffffffffffffffffff1673ffffffffffffffffffffffffffffffffffffffff168152602001908152602001600020548152602001908152602001600020600101548152602001848152602001838152602001600081526020013373ffffffffffffffffffffffffffffffffffffffff1681525090806001815401808255809150509060018203906000526020600020906005020160009091929091909150600082015181600001556020820151816001019080519060200190610efe929190611396565b506040820151816002019080519060200190610f1b929190611396565b506060820151816003015560808201518160040160006101000a81548173ffffffffffffffffffffffffffffffffffffffff021916908373ffffffffffffffffffffffffffffffffffffffff1602179055505050507fc1d8dfa99b3f84f95d3f0bc4a768addeb97b83b20aef7f9cb6729e126bafd2f960026000600360003373ffffffffffffffffffffffffffffffffffffffff1673ffffffffffffffffffffffffffffffffffffffff168152602001908152602001600020548152602001908152602001600020600101548383600033604051610ffd9594939291906119bb565b60405180910390a15050565b60026020528060005260406000206000915090508060000154908060010154908060020160009054906101000a900473ffffffffffffffffffffffffffffffffffffffff1690806003018054600181600116156101000203166002900480601f0160208091040260200160405190810160405280929190818152602001828054600181600116156101000203166002900480156110e75780601f106110bc576101008083540402835291602001916110e7565b820191906000526020600020905b8154815290600101906020018083116110ca57829003601f168201915b505050505090806004018054600181600116156101000203166002900480601f0160208091040260200160405190810160405280929190818152602001828054600181600116156101000203166002900480156111855780601f1061115a57610100808354040283529160200191611185565b820191906000526020600020905b81548152906001019060200180831161116857829003601f168201915b505050505090806005018054600181600116156101000203166002900480601f0160208091040260200160405190810160405280929190818152602001828054600181600116156101000203166002900480156112235780601f106111f857610100808354040283529160200191611223565b820191906000526020600020905b81548152906001019060200180831161120657829003601f168201915b505050505090806006018054600181600116156101000203166002900480601f0160208091040260200160405190810160405280929190818152602001828054600181600116156101000203166002900480156112c15780601f10611296576101008083540402835291602001916112c1565b820191906000526020600020905b8154815290600101906020018083116112a457829003601f168201915b5050505050905087565b60015481565b6040518060a0016040528060008152602001606081526020016060815260200160008152602001600073ffffffffffffffffffffffffffffffffffffffff1681525090565b828054600181600116156101000203166002900490600052602060002090601f016020900481019282601f1061135757805160ff1916838001178555611385565b82800160010185558215611385579182015b82811115611384578251825591602001919060010190611369565b5b5090506113929190611416565b5090565b828054600181600116156101000203166002900490600052602060002090601f016020900481019282601f106113d757805160ff1916838001178555611405565b82800160010185558215611405579182015b828111156114045782518255916020019190600101906113e9565b5b5090506114129190611416565b5090565b61143891905b8082111561143457600081600090555060010161141c565b5090565b90565b60008135905061144a81611cbb565b92915050565b600082601f83011261146157600080fd5b813561147461146f82611b35565b611b08565b9150808252602083016020830185838301111561149057600080fd5b61149b838284611c68565b50505092915050565b6000813590506114b381611cd2565b92915050565b6000602082840312156114cb57600080fd5b60006114d98482850161143b565b91505092915050565b600080604083850312156114f557600080fd5b60006115038582860161143b565b9250506020611514858286016114a4565b9150509250929050565b60006020828403121561153057600080fd5b600082013567ffffffffffffffff81111561154a57600080fd5b61155684828501611450565b91505092915050565b6000806040838503121561157257600080fd5b600083013567ffffffffffffffff81111561158c57600080fd5b61159885828601611450565b925050602083013567ffffffffffffffff8111156115b557600080fd5b6115c185828601611450565b9150509250929050565b600080600080608085870312156115e157600080fd5b600085013567ffffffffffffffff8111156115fb57600080fd5b61160787828801611450565b945050602085013567ffffffffffffffff81111561162457600080fd5b61163087828801611450565b935050604085013567ffffffffffffffff81111561164d57600080fd5b61165987828801611450565b925050606085013567ffffffffffffffff81111561167657600080fd5b61168287828801611450565b91505092959194509250565b6000602082840312156116a057600080fd5b60006116ae848285016114a4565b91505092915050565b60006116c38383611836565b905092915050565b6116d481611c20565b82525050565b6116e381611be4565b82525050565b6116f281611be4565b82525050565b61170181611bd2565b82525050565b600061171282611b71565b61171c8185611b9f565b93508360208202850161172e85611b61565b8060005b8581101561176a578484038952815161174b85826116b7565b945061175683611b92565b925060208a01995050600181019050611732565b50829750879550505050505092915050565b61178581611c32565b82525050565b600061179682611b87565b6117a08185611bc1565b93506117b0818560208601611c77565b6117b981611caa565b840191505092915050565b60006117cf82611b7c565b6117d98185611bb0565b93506117e9818560208601611c77565b6117f281611caa565b840191505092915050565b600061180882611b7c565b6118128185611bc1565b9350611822818560208601611c77565b61182b81611caa565b840191505092915050565b600060a08301600083015161184e60008601826118b3565b506020830151848203602086015261186682826117c4565b9150506040830151848203604086015261188082826117c4565b915050606083015161189560608601826118b3565b5060808301516118a860808601826116da565b508091505092915050565b6118bc81611c16565b82525050565b6118cb81611c16565b82525050565b600060208201905081810360008301526118eb8184611707565b905092915050565b6000602082019050818103600083015261190d81846117fd565b905092915050565b600060208201905061192a60008301846118c2565b92915050565b600060e082019050611945600083018a6118c2565b611952602083018961177c565b61195f60408301886116cb565b8181036060830152611971818761178b565b90508181036080830152611985818661178b565b905081810360a0830152611999818561178b565b905081810360c08301526119ad818461178b565b905098975050505050505050565b600060a0820190506119d060008301886118c2565b81810360208301526119e2818761178b565b905081810360408301526119f6818661178b565b9050611a05606083018561177c565b611a1260808301846116e9565b9695505050505050565b600060a082019050611a3160008301886118c2565b8181036020830152611a4381876117fd565b90508181036040830152611a5781866117fd565b9050611a6660608301856118c2565b611a7360808301846116e9565b9695505050505050565b600060e082019050611a92600083018a6118c2565b611a9f60208301896118c2565b611aac60408301886116f8565b8181036060830152611abe81876117fd565b90508181036080830152611ad281866117fd565b905081810360a0830152611ae681856117fd565b905081810360c0830152611afa81846117fd565b905098975050505050505050565b6000604051905081810181811067ffffffffffffffff82111715611b2b57600080fd5b8060405250919050565b600067ffffffffffffffff821115611b4c57600080fd5b601f19601f8301169050602081019050919050565b6000819050602082019050919050565b600081519050919050565b600081519050919050565b600081519050919050565b6000602082019050919050565b600082825260208201905092915050565b600082825260208201905092915050565b600082825260208201905092915050565b6000611bdd82611bf6565b9050919050565b6000611bef82611bf6565b9050919050565b600073ffffffffffffffffffffffffffffffffffffffff82169050919050565b6000819050919050565b6000611c2b82611c44565b9050919050565b6000611c3d82611c16565b9050919050565b6000611c4f82611c56565b9050919050565b6000611c6182611bf6565b9050919050565b82818337600083830152505050565b60005b83811015611c95578082015181840152602081019050611c7a565b83811115611ca4576000848401525b50505050565b6000601f19601f8301169050919050565b611cc481611bd2565b8114611ccf57600080fd5b50565b611cdb81611c16565b8114611ce657600080fd5b5056fea365627a7a7231582017cbfc7ea1d1020aa9c54bee122e5fa404ea01ef25daa9c850a2dee9e06353716c6578706572696d656e74616cf564736f6c63430005100040",
  "source": "pragma solidity ^0.5.16;\npragma experimental ABIEncoderV2;\n\ncontract Photolla {\n  string public name = \"Photolla\";\n  uint public creatorCount = 0;\n  //uint public imageCount = 0;\n\tmapping(uint => Creator) public creators;\n  mapping(address => uint) public creatorIDs;\n\tmapping(address => Image[]) public images;\n  /*A mapping is essentially a key-value store for storing and looking up data.\n  key is an uint, value is an Image*/\n\n  struct Creator {\n\t  uint creatorId;\n    uint imageCount;\n\t  address creatorAddress;\n\t  string creatorName;\n    string defaultProfile;\n    string profileHash;\n    string bio;\n  }\n\n  event CreatorNameCreated(\n    uint creatorId,\n    uint imageCount,\n    address creatorAddress,\n    string creatorName,\n    string defaultProfile,\n    string profileHash,\n    string bio\n\t);\n\n  struct Image {\n\t  uint imageId;\n\t  string hash;\n\t  string description;\n\t  uint tipAmount;\n\t  address payable author; //mechanism to collect or receive fund to the contract\n  }\n\n  event ImageCreated(\n    uint imageId,\n    string hash,\n    string description,\n    uint tipAmount,\n    address payable author\n  );\n\n  event ImageTipped(\n    uint imageId,\n    string hash,\n    string description,\n    uint tipAmount,\n    address payable author\n  );\n/*\nEvent is an inheritable member of a contract.\nAn event is emitted, it stores the arguments passed in transaction logs.\nThese logs are stored on blockchain and are accessible using address of the contract\nhttps://www.tutorialspoint.com/solidity/solidity_events.htm\nEvents are a way for your contract to communicate that something happened on the blockchain to your app front-end,\nwhich can be 'listening' for certain events and take action when they happen*/\n\n  function getImages(address creatorAddress) public returns (Image[] memory creatorImages) {\n    return images[creatorAddress];\n  }\n\n//add creator name\n\tfunction newCreator(string memory _creatorName, string memory _profileHash, string memory _defaultProfile, string memory _bio) public {\n\t\trequire(msg.sender != address(0x0));\n\t\trequire(bytes(_creatorName).length > 0);\n\t\tcreatorCount++;\n    creatorIDs[msg.sender] = creatorCount;\n\t\tcreators[creatorCount] = Creator(creatorCount, 0, msg.sender, _creatorName, _defaultProfile, _profileHash, _bio);\n\t\temit CreatorNameCreated(creatorCount, 0, msg.sender, _creatorName, _defaultProfile, _profileHash, _bio);\n\t}\n\n//create image\n  function uploadImage(string memory _imageHash, string memory _description) public {\n\t  //Make sure image hash exist\n\t  require(bytes(_imageHash).length > 0);\n\t  //Make sure description exists\n\t  require(bytes(_description).length > 0);\n\t  //Make sure uploader address exists\n\t  require(msg.sender != address(0x0));\n\t  //Add image to contract\n\t  //msg.sender: refers to the address of the person (or smart contract) who called the current function.\n    creators[creatorIDs[msg.sender]].imageCount++;\n    images[msg.sender].push(Image(creators[creatorIDs[msg.sender]].imageCount, _imageHash, _description, 0, msg.sender));\n\t  emit ImageCreated(creators[creatorIDs[msg.sender]].imageCount, _imageHash, _description, 0, msg.sender);\n  }\n\n//create profile image\n  function uploadProfileImage(string memory _imageHash) public {\n    require(bytes(_imageHash).length > 0);\n    require(msg.sender != address(0x0));\n\n    creators[creatorIDs[msg.sender]].profileHash = _imageHash;\n  }\n\n  function tipImageOwner(address creatorAddress, uint imageID) public payable {\n\t  Image memory _image = images[creatorAddress][imageID];\n\t  address payable _author = _image.author;\n\t  //pay the author by sending them ether\n\t  address(_author).transfer(msg.value);\n\t  //increment the tip amount\n\t  //update the image\n\t  images[creatorAddress][imageID].tipAmount += msg.value;\n    \t  //trigger an event\n\t  emit ImageTipped(_image.imageId, _image.hash, _image.description, _image.tipAmount, _author);\n  }\n}\n",
  "sourcePath": "/Users/yeejin/Documents/Photolla/latest/Photolla/src/contracts/Photolla.sol",
  "compiler": {
    "name": "solc",
    "version": "0.5.16+commit.9c3226ce.Emscripten.clang"
  },
  "schemaVersion": "3.2.3",
  "updatedAt": "2021-08-15T05:23:44.932Z",
  "networkType": "ethereum",
  "devdoc": {
    "methods": {}
  },
  "userdoc": {
    "methods": {}
  }
}